:020000040000FA
:10000000989DFF1F99020000C9020000CB0200006A
:10001000CD020000CF020000D1020000000000006D
:10002000000000000000000000000000D3020000FB
:10003000D502000000000000D7020000B549000012
:100040008130000095300000A9300000BD30000074
:10005000D1300000E5300000F93000000D31000023
:100060002131000035310000493100005D310000D0
:10007000713100008531000099310000AD31000080
:10008000C1310000D5310000E9310000FD31000030
:100090001132000025320000393200004D320000DC
:1000A0006132000075320000893200009D3200008C
:1000B000B1320000C5320000D9320000ED3200003C
:1000C0000133000015330000293300003D330000E8
:1000D0005133000065330000793300008D33000098
:1000E000A1330000B5330000C9330000DD33000048
:1000F000F133000005340000193400002D340000F5
:100100004134000055340000693400007D340000A3
:1001100091340000A5340000B9340000CD34000053
:10012000E1340000F5340000093500001D35000001
:100130003135000045350000593500006D350000AF
:100140008135000095350000A9350000BD3500005F
:10015000D1350000E5350000F93500000D3600000E
:100160002136000035360000493600005D360000BB
:10017000713600008536000099360000AD3600006B
:10018000C1360000D5360000E9360000FD3600001B
:100190001137000025370000393700004D370000C7
:1001A0006137000075370000893700009D37000077
:1001B000B1370000C5370000D9370000ED37000027
:1001C0000138000015380000293800003D380000D3
:1001D0005138000065380000793800008D38000083
:1001E000A1380000B5380000C9380000DD38000033
:1001F000F138000005390000193900002D390000E0
:100200004139000055390000693900007D3900008E
:1002100091390000A5390000B9390000CD3900003E
:10022000E1390000F5390000093A00001D3A0000EC
:10023000313A0000453A0000593A00006D3A00009A
:10024000DB020000DB020000DB020000DB0200003A
:10025000DB020000DB020000DB020000DB0200002A
:10026000DB020000DB020000DB020000DB0200001A
:10027000DB020000DB020000DB020000DB0200000A
:10028000DFF810D000F00AFA00480047F7680000D5
:10029000AFF30080989DFF1F10484FF07701016079
:1002A0000F484FF0770101600E484FF4885101600C
:1002B0000A484FF07601016009484FF0760101606D
:1002C0000948804709480047FEE7FEE7FEE7FEE7EA
:1002D000FEE7FEE7FEE7FEE7FEE7FEE7040805406F
:1002E0000C08054000080540554B00008102000045
:1002F0002DE9F05F0546002092469B46884606465B
:10030000814640241BE0284641464746224600F0ED
:1003100021F953465A46C01A914110D31146184646
:10032000224600F008F92D1A67EB01084F462246D5
:100330000120002100F0FFF817EB00094E41201EBC
:10034000A4F10104DFDC484631462A464346BDE8B5
:10035000F09F40EA01039B0703D009E008C9121F80
:1003600008C0042AFAD203E011F8013B00F8013B6F
:10037000521EF9D27047D2B201E000F8012B491E9B
:10038000FBD270470022F6E710B513460A46044632
:100390001946FFF7F0FF204610BD30B50446002097
:1003A000034600E05B1C934203D2E05CCD5C401B43
:1003B000F8D030BD0EB540F2334102910021CDE9B5
:1003C00000110A460B4600F01BF903B000BD0EB544
:1003D00040F2334202920022CDE90022134600F09F
:1003E0000FF903B000BD00000020014908737047F9
:1003F0006082FF1F01460869704700BFFEE7704733
:10040000BFFFDFFFFFFEFFFFFFFFFFFFFFFFFFFF5D
:10041000FFFFFFFFFFFFFFFFFFFFFFFFFFFFFFFFEC
:100420002DE9F04D81EA030404F0004B21F0004572
:1004300014464FF0000A23F0004150EA050220D094
:1004400054EA01021DD0C5F30A570246C5F313034F
:10045000C1F31300C1F30A5640F4801543F480132E
:10046000A7EB0608101BD64608F2FD3873EB050013
:1004700002D308F1010801E092185B41B8F1000FC6
:1004800003DA00200146BDE8F08D00204FF4801112
:10049000064684460EE0171B73EB050705D3121BB7
:1004A00063EB050306434CEA010C49084FEA3000B0
:1004B00092185B4150EA0107EDD152EA030012D0D5
:1004C00082EA040083EA0501084305D0101BAB4112
:1004D00006D20122002306E000224FF0004302E092
:1004E0006FF0010253101AEB06004CEB085110EBB1
:1004F0000A0041EB0B01BDE8F04D00F072B801F0CD
:10050000004330B421F0004150EA010206D00A0D48
:10051000A2F56072C1F31301002A02DC30BC002096
:100520007047440F44EAC104C100E01830BC00EB3E
:10053000C25000F01FB8202A04DB203A00FA02F172
:10054000002070479140C2F1200320FA03F31943C1
:1005500090407047202A04DB203A21FA02F0002163
:10056000704721FA02F3D040C2F1200291400843C3
:10057000194670470029A8BF7047401C490008BFB2
:1005800020F00100704710B4B0FA80FC00FA0CF0C3
:1005900050EA010404BF10BC704749B1CCF12004FB
:1005A00021FA04F411FA0CF118BF01212143084388
:1005B000A3EB0C01CB1D4FEA00614FEA102042BFB4
:1005C000002010BC704700EBC35010440029A4BFAA
:1005D00010BC7047401C490008BF20F0010010BC4F
:1005E000704710B5141E73F1000408DA401C41F185
:1005F000000192185B411A4301D120F0010010BDA7
:100600002DE9F04D92469B4611B1B1FA81F202E01C
:10061000B0FA80F220329046FFF78DFF04460F4675
:1006200040EA0A0041EA0B0153465A46084313D0F8
:10063000114653EA010019D0C8F140025046FFF7B5
:1006400089FF05460E46504659464246FFF773FF5E
:10065000084305D0012004E020463946BDE8F08D6E
:100660000020054346EAE0762C4337430A986305A9
:10067000E40AA0EB08000022FD0A44EA47540A30CD
:1006800002D500200146E9E7010510196941DDE9BD
:10069000084500196941BDE8F04DA2E7064C074D39
:1006A00006E0E06840F0010394E807009847103442
:1006B000AC42F6D3FFF7E8FDC06B0000E06B000032
:1006C00070B504460D4600BF2D4884424DD0001D34
:1006D00084424AD0001D844247D0001D844244D049
:1006E000001D844241D0001D84423ED0001D844242
:1006F0003BD0001D844238D0001D844235D0001DFF
:10070000844232D0001D84422FD0001D84422CD060
:10071000001D844229D0001D844226D0001D844241
:1007200023D0001D844220D0001D84421DD0001D16
:1007300084421AD0001D844217D0001D844214D078
:10074000001D844211D0001D84420ED0001D844241
:100750000BD0001D844208D0001D844205D0001D2E
:10076000844202D0001D844200D103E09E2105A0F6
:10077000FFF743FE00BF206865F30800206070BDEE
:10078000040801402E2E5C2E2E5C64726976657220
:10079000735C686333325F6C6C5F64726976657238
:1007A0005C7372635C686333325F6C6C5F616F7340
:1007B0002E630000F8B505460E46022006F063F9E8
:1007C0000446B4B33948007800EB40020C211520F0
:1007D00000F00AF93548007800EB40000C231522A0
:1007E00001210090324803F019FA3048007800EBFC
:1007F00040000C231522082100902E4803F00EFA29
:100800000120009029480078642110FB01F20123A7
:100810000421294803F002FA0120009023480078BF
:10082000642110FB01F201230621244803F0F6F9AC
:100830003AE0FFE71D4802780A210F2000F0D4F8C3
:10084000012000901948007800EBC00101EB001274
:1008500001231946164803F0E1F9012000901348DE
:10086000007800EBC00101EB0012012308211148C0
:1008700003F0D4F9012000900C48007800EBC0018F
:1008800001EB0012012304210B4803F0C7F90120FA
:1008900000900648007800EBC00101EB0012012334
:1008A0000621064803F0BAF9F8BD00001B80FF1FBF
:1008B0006E82FF1FC282FF1F9882FF1FD082FF1F20
:1008C00010B500F0B1F80121094803F051FA0221F6
:1008D000084803F04DFA0421074803F049FA0621BD
:1008E000064803F045FA01200549087010BD0000D4
:1008F0006E82FF1F7C82FF1F9882FF1FD082FF1F26
:100900001980FF1F10B50C4800785A2802D103F057
:10091000EBFB0FE008480078A52802D102F0F8F9B7
:1009200008E005480078552802D103F0EFFB01E00C
:10093000FFF7C6FF10BD00000880FF1F10B5284854
:10094000007830B12648808818B12548007B0128FE
:1009500000D110BD22484078A8B9214880880028DD
:100960003BDD1F480089401C80B21D490881498831
:10097000884232DB1B4804F027FE0020184908811A
:100980000120487029E016484078012825D11448F4
:100990000089401C80B212490881898888421CDB8A
:1009A0000F48C088002812DD0D484089401C80B2E5
:1009B0000B494881C988884202DB00200849087039
:1009C0000748007818B9002005498880C1E7002051
:1009D00003490881487000F071F900BFB9E70000D1
:1009E0006082FF1F0050014070B504460E46154658
:1009F0003CB10C48007B012803D00A48007801284C
:100A000000D170BD074844808680C580002005491C
:100A10000881488148700120087000F04FF900BF3C
:100A2000EFE700006082FF1F10B505F097FF00BFE1
:100A30000E210848FFF7A6FC00BF074804F0C4FDDC
:100A40004FF400720021044804F0C0FC05F090FF50
:100A500010BD00006082FF1F005001401FB5012241
:100A60000321052001F03EFD02A800F0A3FC68462A
:100A700000F044FB2B492C4800F069FB00208DF866
:100A80000A0030208DF8090000208DF808000520AC
:100A90008DF80C0002A800F0E9FB002001900198FD
:100AA00020F01F0001903121019861F31020019086
:100AB000019820F0704000F180500190019820F0E2
:100AC000706000F180700190019820F4700000F5D2
:100AD0008010019000208DF80000019820F0800027
:100AE0000190684600F0B6F900BF202000F01AF926
:100AF0000128FAD100221146042003F087FB0122CD
:100B000011460B2003F082FB502001F0B5FB4FF49F
:100B1000404002F01BF803F095F9052000F021FB9E
:100B20001FBD0000102211007777770710B503462C
:100B30006FF0020043B139B132B1196000245C603A
:100B40009C60DA601A61002010BD2DE9F041044676
:100B50000E4617460025002C3CD0002E3AD0002F20
:100B600038D0204600F039F80546BD4200D33D4656
:100B7000A0682844E168884207D8A26820688118E4
:100B80002A463046FFF7E5FB11E0D4E90210A0EB5E
:100B90000108A2682068811842463046FFF7D9FB59
:100BA000A5EB080206EB08002168FFF7D2FB72B63E
:100BB000206928442061A0682844A060D4E902018B
:100BC000884206D3D4E90201B0FBF1F201FB120026
:100BD000A06062B62846BDE8F0810146D1E9030273
:100BE000801A70472DE9F0410446884616460025D4
:100BF000002C3BD0B8F1000F38D0002E36D0204664
:100C0000FFF7F8FB0546AE4200D835466068284439
:100C1000E168884207D8D4E9001288182A4641467C
:100C2000FFF797FB0FE06168E068471AD4E900120C
:100C300088183A464146FFF78CFBEA1B08EB070190
:100C40002068FFF786FB72B62069401B2061606850
:100C500028446060E1686068884206D3E1686068A3
:100C6000B0FBF1F201FB1200606062B62846BDE8FD
:100C7000F08100B585B0684601F0B0FF0020ADF806
:100C800000000220ADF802001020ADF8060000219F
:100C9000042001F047FE6A460821012001F080FC93
:100CA0006A464FF40061002001F07AFC6A464FF476
:100CB0008051002001F074FC05B000BD10B517484C
:100CC000007800B910BDC72002F0C6FF144804F038
:100CD0002BF9134804F078FC00221146104804F068
:100CE00019FB0E48007800280FDD0C4800780A2810
:100CF0000BDC0A49097801EBC10202EB0111012268
:100D0000C2EB011004F046FD03E04FF4FA6004F07A
:100D100041FD034804F010FC00BFD3E72C80FF1F07
:100D20000050014010B5044600BF24B144F06900F2
:100D3000692800D104E04FF4B26106A0FFF75DFB23
:100D400000BF10480078204008B1012010BD0020ED
:100D5000FCE700002E2E5C2E2E5C647269766572B4
:100D6000735C686333325F6C6C5F64726976657262
:100D70005C7372635C686333325F6C6C5F636C6B73
:100D80002E6300003C40054070B50446002500BFBE
:100D90000CB1012C00D104E040F2E6411FA0FFF7A6
:100DA0002CFB00BF00BF2948008800F0010000B103
:100DB00004E040F2E74119A0FFF71FFB00BF64B950
:100DC0002348007800F00700052801D1C54322E040
:100DD00001201F49091D08701DE01D48DA30006818
:100DE000C0F3C01030B94FF48051082000F0C1F9B1
:100DF000054605E04FF48051012000F0BAF90546A0
:100E00004DB900201249091D08704FF4805120206F
:100E100000F0AFF90546284670BD00002E2E5C2E6E
:100E20002E5C647269766572735C686333325F6CE2
:100E30006C5F6472697665725C7372635C6863335D
:100E4000325F6C6C5F636C6B2E630000FE43054089
:100E5000264005402DE9F041044614B96FF0020622
:100E60001FE100BF2079C0F3C01018B12079C0F392
:100E7000C01000B104E040F2B9418BA0FFF7BDFA09
:100E800000BF00BF207900F01F00401C182805D8C3
:100E9000207900F01F00401C00B104E040F2BA418C
:100EA00081A0FFF7AAFA00BF00BF6068C0F3082066
:100EB000401CB0F5F07F06D86068C0F30820401CE5
:100EC000142800D304E040F2BB4177A0FFF795FA65
:100ED00000BF00BF0121606801EB1070102805D829
:100EE000606801EB1070022800D304E040F2BC41BE
:100EF0006DA0FFF782FA00BF2079C0F3C01008B9D7
:100F0000754901E075480168207900F01F00401C18
:100F1000B1FBF0F76068C0F30820401C00FB07F548
:100F200000BF6F48874203D86E48874200D304E071
:100F300040F2C1415CA0FFF760FA00BF00BF6A4801
:100F4000854203D84010854200D304E040F2C241FC
:100F500055A0FFF752FA00BF00BF0121606801EB06
:100F60001070B5FBF0F06149884209D80121606832
:100F700001EB1070B5FBF0F05D49884200D304E04E
:100F800040F2C34148A0FFF738FA00BF00BF6068D5
:100F9000C0F30360401C102806D86068C0F30360EB
:100FA000401C022800D304E040F2C4413EA0FFF7F9
:100FB00024FA00BF00BF6068C0F30350401C102833
:100FC00006D86068C0F30350401C022800D304E038
:100FD00040F2C54134A0FFF710FA00BF00BF6068BF
:100FE000C0F30350401CB5FBF0F04049884209D8DB
:100FF0006068C0F30350401CB5FBF0F03C498842E8
:1010000000D304E040F2C64127A0FFF7F6F900BF85
:1010100000BF6068C0F30360401CB5FBF0F03349CB
:10102000884209D86068C0F30360401CB5FBF0F04B
:101030002F49884200D304E040F2C7411AA0FFF7CD
:10104000DCF900BF00BF2078012801D0207800B96A
:1010500004E040F2C94114A0FFF7CFF900BF00BF80
:101060002448008800F0010000B104E040F2CA41C9
:101070000DA0FFF7C2F900BF2079C1091E48006822
:1010800061F3C7101C49086060680860207820B9C7
:101090000120FFF779FE064603E00020FFF774FE0B
:1010A00006463046BDE8F0812E2E5C2E2E5C647222
:1010B00069766572735C686333325F6C6C5F64720F
:1010C000697665725C7372635C686333325F6C6C03
:1010D0005F636C6B2E63000000127A000480FF1FB8
:1010E00040787D0140420F0000389C1C00C2EB0B91
:1010F000C0E1E400FE4305400041054001460020F8
:1011000009B9C01E22E000224A604A6822F080022B
:101110004A604A6822F01F024A6013234A6863F358
:1011200010224A604A6822F0704202F180524A60FE
:101130004A6822F0706202F180724A604A6822F4C2
:10114000700202F580124A6001220A70704770B581
:1011500004460D462946204603F0CEF803F094FCE1
:1011600070BD10B50446204603F05EFA03F08CFC17
:1011700010BDF8B505460C46002000906FF007063C
:1011800009E02846FFF7CEFD012801D1002605E041
:101190000098401C00900098A042F2D900BF304651
:1011A000F8BD000070B50446002500BF0CB1012C4D
:1011B00000D104E040F2A9311EA0FFF71EF900BFE4
:1011C00000BF2848008800F0010000B104E040F2B0
:1011D000AA3118A0FFF711F900BFFCB92248007826
:1011E00000F00700032802D16FF0050520E01E483B
:1011F000DA300068C0F3C01058B91B48001D0078F1
:1012000010B96FF0050513E0012017490C31087083
:101210000EE0012014490C31087009E00020124949
:101220000C3108704FF480510820FFF7A2FF0546EB
:10123000284670BD2E2E5C2E2E5C64726976657217
:10124000735C686333325F6C6C5F6472697665727D
:101250005C7372635C686333325F6C6C5F636C6B8E
:101260002E630000FE4305402640054070B504464D
:1012700014B96FF002057FE000BF2078012801D08B
:10128000207800B904E040F289313CA0FFF7B5F8BE
:1012900000BF00BF607840B16078102805D060784A
:1012A000202802D06078302800D104E040F28A3152
:1012B00032A0FFF7A2F800BF00BFA07810B1A0785D
:1012C000402800D104E040F28B312CA0FFF795F8C4
:1012D00000BF00BFE078802801D0E07800B904E0CA
:1012E0004FF4637125A0FFF788F800BF00BF207995
:1012F000012817D02079022814D02079032811D092
:10130000207904280ED0207905280BD020790628D2
:1013100008D02079072805D02079082802D0207924
:10132000092800D104E040F28D3114A0FFF765F8E0
:1013300000BF00BF1D48008800F0010000B104E0BC
:1013400040F28E310DA0FFF758F800BF2079184900
:101350000870E07861780843A17808431349123196
:101360000870207820B90120FFF71CFF054603E034
:101370000020FFF717FF0546284670BD2E2E5C2E75
:101380002E5C647269766572735C686333325F6C7D
:101390006C5F6472697665725C7372635C686333F8
:1013A000325F6C6C5F636C6B2E630000FE43054024
:1013B000A24005400146002009B9C01E08E00122F4
:1013C0000A7000228A704A708022CA7005220A714F
:1013D0007047F0B50B46802100241AE0078807F417
:1013E000004507884FF6FF7C0CEA4707078002EAB2
:1013F00001078F4201D1012700E000273E46078800
:101400003743078015B107885F4007804910671C84
:10141000BCB2082CE2DBF0BD78B505460E464FF6AF
:10142000FF700090002407E02A5D41F22101684628
:10143000FFF7CFFF601CC4B2B442F5DBBDF800007B
:1014400078BD000010B50448FFF7C7FB2D2801D375
:1014500005F0ACFA10BD00003087FF1FF0B589B071
:101460003148FFF7BAFB20285CD305F0F1F90546B7
:10147000202201A92C48FFF768FB052005F003FB9B
:1014800006460B2005F0FFFA074601A801F0B6FB5F
:101490000446002C07DB01200346022207210090AE
:1014A000224802F0BBFB7CB916B12148008858B92C
:1014B00001200090FF201E490880012269461D4836
:1014C000FFF790FB09B0F0BD4CB905B93FB9012059
:1014D0000090012269461748FFF784FBF2E7012CD0
:1014E0000ED11548007801280AD103200090002071
:1014F00011490870012269460E48FFF773FBE1E7C6
:10150000022C0ED10C48007802280AD10720009046
:10151000002009490870012269460648FFF762FB6E
:10152000D0E700BF00BFCDE7E087FF1FB482FF1FF9
:101530000C80FF1FF487FF1F0A80FF1F1CB5254882
:10154000006825490968884205D82448006822496E
:101550000968884204D900201E4908601F490860B4
:101560001D4800684FF49671B0FBF1F201FB1200C8
:1015700048B91948006819490968884203D91648CA
:10158000006816490860144800683221B0FBF1F287
:1015900001FB120008B902F0C5FC0F4800684FF4C7
:1015A0007A71B0FBF1F201FB120080B90A480068C1
:1015B0000849096888420AD907480068054908604F
:1015C00000F012F8694601A804F044FE00BF04F0E0
:1015D0009BFE1CBD2480FF1F2080FF1F2880FF1F53
:1015E00010B504F0A3FF10BD10B50748007848B946
:1015F0000648007830B90648007818B9FFF760F956
:10160000012010BD0020FCE76E82FF1F7C82FF1FBF
:101610006082FF1F2DE9F04F2DED088B89B08346C6
:10162000894601200490801E039000BF6D488345C9
:1016300008D06D48834505D06C48834502D06C487E
:10164000834500D104E040F29D116AA0FEF7D5FE6B
:1016500000BFD9F80040D9F80460002C7CD0002EDF
:10166000FCD0B000B4FBF0F0451EFF2D77D8C9F8D0
:101670000850B000B4FBF0F100FB11400590059854
:1016800030B99FED690A89ED040A0020039066E0F5
:1016900000206A1C40EB000C04230021A2FB030E77
:1016A0000CFB03E302FB0132A0FB067302FB0632D4
:1016B00000FB01284FF480710022A7FB01C308FB47
:1016C000013107FB021052084FEA34031CEB0301FF
:1016D000504122460023CDE9001008460199FEF74B
:1016E00007FE8021B0EB010ABAF17F0F35D8C9F8A7
:1016F0000CA0490000203A46A2FB01CE08FB01E104
:1017000007FB0018674680211AEB010240EB00033B
:101710000021A2FB040C03FB04C302FB0131CDE951
:10172000060138464146FEF752FE41EC1A0BDDE950
:101730000601FEF74CFE53EC1A2BFEF771FEFEF786
:10174000DEFE00EE100AF7EE000A30EE608A89ED48
:10175000048A0020039002E03EE0002004900498F8
:10176000D0BB04EB84004000B100B0FBF1F0401DA1
:101770000A21B0FBF1F0451EFF2D2DD8C9F8085005
:1017800000206B1C404104214FF0000CA3FB012EF4
:1017900000FB01E003FB0C016346A2FB067C01FB9E
:1017A00006C102FB031838464146FEF710FE41EC25
:1017B0001A0B2046FEF7FEFD53EC1A2BFEF730FE07
:1017C000FEF79DFE00EE100AF7EE000A30EE608A8A
:1017D00089ED048A00200390039809B0BDEC088BC2
:1017E000BDE8F08F00D0014000D40140001002405D
:1017F000001402402E2E5C2E2E5C64726976657297
:10180000735C686333325F6C6C5F647269766572B7
:101810005C7372635C686333325F6C6C5F757361B9
:1018200072742E63000000000000000008B50D492E
:10183000096AC1F302630C490968D94042F2107386
:101840001944491EB1FBF3F206E0009200BF009973
:101850004B1E00930029FAD1011EA0F10100F4D122
:1018600008BD0000004005400080FF1F08B50C497E
:10187000096AC1F302630B490968D9400A4B19444C
:10188000491EB1FBF3F206E0009200BF00994B1E27
:1018900000930029FAD1011EA0F10100F4D108BD86
:1018A000004005400080FF1F809698002DE9F0471A
:1018B00004460D469146002700BF6E48844202D080
:1018C0006D48844200D104E04FF4B2716BA0FEF782
:1018D00094FD00BF00BF032D00D804E040F2651165
:1018E00066A0FEF78AFD00BF00BFB9F1000F02D06D
:1018F000B9F1010F00D104E04FF4B3715FA0FEF71E
:101900007CFD00BF6948007800287DD1012067492F
:101910000870E0690121A94020EA010ABAF1000F2C
:1019200073D0E06900F00100D8B1D5B1A06C4FEAE6
:101930001048A06E060C0A2E13D8464511D20BE0B3
:10194000781C87B2B7F5A04F06D900205749087018
:101950006FF00700BDE8F087E06900F001000028A3
:10196000EED1E06900F0020002281ED1012D1CD04A
:10197000D4F888004FEA1048D4F8A800060C0A2EC4
:1019800013D8464511D200270AE0781C87B2B7F574
:10199000A04F05D90020454908706FF00700D9E72E
:1019A000E06900F002000028EFD1E06900F00400D7
:1019B00004281ED1022D1CD00027D4F8C8004FEAFD
:1019C0001048D4F8E800060C0A2E12D8464510D26A
:1019D0000AE0781C87B2B7F5A04F05D9002033493B
:1019E00008706FF00700B5E7E06900F00400002818
:1019F000EFD1E06900F00800082821D1032D1FD0A5
:101A00000027D4F8080101E030E019E04FEA10485F
:101A1000D4F82801060C0A2E12D8464510D20AE046
:101A2000781C87B2B7F5A04F05D900201F49087070
:101A30006FF007008EE7E06900F008000028EFD1A2
:101A4000B9F1010F07D1E1690120A84000F00F00B2
:101A50000143E16106E0E0690121A9400F228A43C8
:101A60001040E06100201149087073E74FF0FF302B
:101A700070E7000000300540003405402E2E5C2E3B
:101A80002E5C647269766572735C686333325F6C76
:101A90006C5F6472697665725C7372635C686333F1
:101AA000325F6C6C5F646D612E6300000E80FF1FFF
:101AB00070B504460D4600BF0F48844202D00F485F
:101AC000844200D104E040F24D110DA0FEF795FCD8
:101AD00000BF00BF2DB145F00F10B0F10F1F00D1B6
:101AE00004E04FF4A77106A0FEF787FC00BFA069D1
:101AF0002843A06170BD000000300540003405405F
:101B00002E2E5C2E2E5C647269766572735C68633F
:101B100033325F6C6C5F6472697665725C7372639A
:101B20005C686333325F6C6C5F646D612E630000D0
:101B300070B504460D4600BF0B48844202D00B48E6
:101B4000844200D103E0E42109A0FEF756FC00BF67
:101B500000BF0DB1012D00D103E0E52104A0FEF787
:101B60004CFC00BF256070BD0030054000340540CE
:101B70002E2E5C2E2E5C647269766572735C6863CF
:101B800033325F6C6C5F6472697665725C7372632A
:101B90005C686333325F6C6C5F646D612E63000060
:101BA00010B58EB00121880300F0C4FB0121880329
:101BB00000F0C0FB0121480400F0BCFB06A800F0C7
:101BC000E9FA4FF48050069001200A9020200B90F3
:101BD000002009905B4808905B48079000200C901B
:101BE00004200D9006AA0021584800F0FBF8044696
:101BF000002C62D103A800F02FFA4FF4806003900C
:101C0000002004905248059003AA00214F4800F09C
:101C1000A3F94F490798086008984860DDE90A0170
:101C200040EA01404A49886008468861DDE90C01C4
:101C300008430999084306990843039908430499FE
:101C400008434349C86101220021404800F052FA8C
:101C500001213E4800F00AFA40F23F113D48FEF7EC
:101C60002FFD2020ADF804000020ADF806003A4812
:101C7000029001A801F090F9BDF9060004F014FCEF
:101C8000BDF906000F2104F02FFCBDF9060004F099
:101C900019FC4FF493712F482038FEF711FD0121F4
:101CA0002A48FFF745FF01221146284800F084FA30
:101CB000012200212548FFF7F9FD06A800F06AFA85
:101CC0004FF48050069001200A9020200B900020B5
:101CD00009901D48801E08901A48079001200C901A
:101CE00000200D9006AA0121184800F07BF8044658
:101CF00034BB2120ADF804000120ADF806001748E0
:101D0000029001A801F048F9BDF9060004F0CCFBEF
:101D1000BDF906000F2104F0E7FBBDF9060004F051
:101D2000D1FB40F227110B481C38FEF7C9FC0121FA
:101D30000648FFF7FDFE01220221044800F03CFAAC
:101D40000EB010BD8087FF1F061402400030054012
:101D50004090FF1F34080140153F000075570000F8
:101D600070B504460D4600BF1048844202D01048AA
:101D7000844200D104E040F213510EA0FEF73DFB77
:101D800000BF00BF032D00D804E040F2145109A0A9
:101D9000FEF733FB00BF04F1680000EB851000681C
:101DA0004FF6FF7101EA104070BD000000300540A1
:101DB000003405402E2E5C2E2E5C647269766572AE
:101DC000735C686333325F6C6C5F647269766572F2
:101DD0005C7372635C686333325F6C6C5F646D610B
:101DE0002E6300002DE9F04106460D4614464FF0E3
:101DF000000800BF4A48864202D04A48864200D1C5
:101E000004E040F28E3148A0FEF7F7FA00BF00BFB1
:101E1000032D00D804E040F28F3143A0FEF7EDFA25
:101E200000BF14B96FF0020876E000BFE06838B177
:101E3000E068B0F5807F03D0E068B0F5007F00D1A6
:101E400004E04FF4657138A0FEF7D7FA00BF00BF79
:101E5000A06928B1A069012802D0A069022800D198
:101E600004E040F2953130A0FEF7C7FA00BF00BF92
:101E7000E06928B1E069042802D0E069082800D1AF
:101E800004E040F2963128A0FEF7B7FA00BF00BF89
:101E90002069B0F5806F00D804E040F2973122A0AD
:101EA000FEF7ABFA00BF00BF2068B0F5805F01D03D
:101EB000206800B904E04FF466711BA0FEF79DFA9C
:101EC00000BF06F1400000EB85106168016006F17B
:101ED000440000EB8510A1680160208AC0F309006E
:101EE000A18A40EA014106F1480000EB851001603B
:101EF00006F15C0000EB8517E16820680843A169E2
:101F00000843E169084341F20F310840396841F262
:101F10000F329143084338604046BDE8F08100002D
:101F200000300540003405402E2E5C2E2E5C64727D
:101F300069766572735C686333325F6C6C5F647280
:101F4000697665725C7372635C686333325F6C6C74
:101F50005F646D612E6300002DE9F04106460D4679
:101F600014464FF0000800BF2D48864202D02D488D
:101F7000864200D104E040F24F412BA0FEF73DFA2B
:101F800000BF00BF032D00D804E04FF48A6126A0F3
:101F9000FEF733FA00BF14B96FF002083DE000BF4E
:101FA0002068B0F5806F01D0206800B904E040F2ED
:101FB00055411DA0FEF721FA00BF00BF6068B0F5D3
:101FC000006F01D0606800B904E040F2564116A0ED
:101FD000FEF713FA00BF00BF207A00F0030000B93B
:101FE00004E040F2574110A0FEF707FA00BF06F1E7
:101FF0005C0000EB85172088A188084300F440604E
:10200000396821F4406108433860A06820F003017A
:1020100006F1580000EB851001604046BDE8F081F4
:1020200000300540003405402E2E5C2E2E5C64727C
:1020300069766572735C686333325F6C6C5F64727F
:10204000697665725C7372635C686333325F6C6C73
:102050005F646D612E6300000146002009B9C01E57
:1020600003E000220A604A608A60704770B5044647
:102070000D4600BF1148844202D01148844200D16D
:1020800004E040F296410FA0FEF7B7F900BF00BF91
:102090000DB1012D00D104E040F2974109A0FEF7F7
:1020A000ACF900BF012D04D1E06A40F00100E0620C
:1020B00003E0E06A20F00100E06270BD00300540FE
:1020C000003405402E2E5C2E2E5C6472697665729B
:1020D000735C686333325F6C6C5F647269766572DF
:1020E0005C7372635C686333325F6C6C5F646D61F8
:1020F0002E63000070B504460E46154600BF174813
:10210000844202D01648844200D104E040F2AA4141
:1021100014A0FEF772F900BF00BF032E00D804E040
:1021200040F2AB410FA0FEF768F900BF00BF0DB150
:10213000012D00D104E040F2AC410AA0FEF75DF9A8
:1021400000BF300240EA450040F602710840E16AF3
:1021500040F6027291430843E06270BD00300540D2
:10216000003405402E2E5C2E2E5C647269766572FA
:10217000735C686333325F6C6C5F6472697665723E
:102180005C7372635C686333325F6C6C5F646D6157
:102190002E6300000146002009B9C01E0AE000229B
:1021A0000A604A608A60CA6001220A6100224A61AC
:1021B0008A61CA617047000070B504460D46164634
:1021C00000BF1748844202D01648844200D104E080
:1021D0004FF4957114A0FEF710F900BF00BF2DB1A8
:1021E00045F00F10B0F10F1F00D104E040F22B11A9
:1021F0000DA0FEF702F900BF00BF0EB1012E00D105
:1022000004E04FF4967108A0FEF7F7F800BF1EB97E
:1022100020692843206102E02069A843206170BD45
:1022200000300540003405402E2E5C2E2E5C64727A
:1022300069766572735C686333325F6C6C5F64727D
:10224000697665725C7372635C686333325F6C6C71
:102250005F646D612E63000050B10649096801603A
:102260000449091D09684160024908310968816013
:10227000704700005004014070B50446002500BFBF
:102280001D480068012800D104E04FF489711BA0AB
:10229000FEF7B3F800BF00BFF02C00D804E040F216
:1022A000131116A0FEF7A9F800BF13480830006804
:1022B00020F0F00004F0F00108430F4908310860F5
:1022C00010E06D1C1948006AC0F3026118480068EC
:1022D000C84044F62061B0FBF1F0A84202D26FF092
:1022E000070070BD04480830006800F0F000A0420C
:1022F000E7D10020F5E70000000401402E2E5C2EFF
:102300002E5C647269766572735C686333325F6CED
:102310006C5F6472697665725C7372635C68633368
:10232000325F6C6C5F65666D2E6300000040054097
:102330000080FF1F70B504460D4600BF2CB1174842
:1023400020431649884200D103E0712114A0FEF712
:1023500054F800BF00BF0DB1012D00D103E0722180
:102360000FA0FEF74AF800BF00BF1948006900F04F
:10237000010000B103E0732109A0FEF73EF800BFA1
:10238000012D05D112480068A0431149086004E0FE
:102390000F48006820430E49086070BD11C5F38FD7
:1023A0002E2E5C2E2E5C647269766572735C686397
:1023B00033325F6C6C5F6472697665725C737263F2
:1023C0005C686333325F6C6C5F6663672E6300002A
:1023D0000080044070B504460D4600BF2CB1114882
:1023E00020431049884200D103E084210EA0FEF76B
:1023F00004F800BF00BF0DB1012D00D103E085211D
:1024000009A0FDF7FAFF00BF012D05D11248406871
:10241000A0431149486004E00F48406820430E493A
:10242000486070BD79FD0F0F2E2E5C2E2E5C6472FD
:1024300069766572735C686333325F6C6C5F64727B
:10244000697665725C7372635C686333325F6C6C6F
:102450005F6663672E6300000080044070B5044629
:102460000D4600BF2CB1114820431049884200D1CD
:1024700003E096210EA0FDF7C0FF00BF00BF0DB125
:10248000012D00D103E0972109A0FDF7B6FF00BFA1
:10249000012D05D112488068A0431149886004E0ED
:1024A0000F48806820430E49886070BDFF87070091
:1024B0002E2E5C2E2E5C647269766572735C686386
:1024C00033325F6C6C5F6472697665725C737263E1
:1024D0005C686333325F6C6C5F6663672E63000019
:1024E000008004402DE9F04104460D46904600BFAF
:1024F0004CB1012C07D0022C05D0032C03D0042CA6
:1025000001D0052C00D104E04FF4207117A0FDF795
:1025100074FF00BF00BF15B1A8B200B104E040F2E3
:10252000812112A0FDF769FF00BF002718E005F028
:10253000010080B1194800EB841000EB8706B8F168
:10254000010F04D1308840F40040308003E030882F
:10255000C0F30E0030806D1005B903E0781CC7B2DF
:10256000102FE4D300BFBDE8F08100002E2E5C2EBA
:102570002E5C647269766572735C686333325F6C7B
:102580006C5F6472697665725C7372635C686333F6
:10259000325F6C6C5F6770696F2E6300003C0540B2
:1025A0002DE9F05F05460E4614464FF0000B14B9B6
:1025B0006FF0020BD7E000BF6C48008800F001000C
:1025C00000B103E0FE216AA0FDF717FF00BF00BFC6
:1025D0004DB1012D07D0022D05D0032D03D0042DC0
:1025E00001D0052D00D103E0FF2161A0FDF705FF1B
:1025F00000BF00BF16B1B0B200B104E04FF480716B
:102600005BA0FDF7FAFE00BF00BF208810B1208854
:10261000012800D104E040F2011155A0FDF7EDFEC4
:1026200000BF00BF608810B16088022800D104E0BC
:102630004FF481714EA0FDF7E0FE00BF00BFA088FF
:1026400010B1A088042800D104E040F2031148A092
:10265000FDF7D3FE00BF00BFE08828B1E088102856
:1026600002D0E088202800D104E04FF4827140A01D
:10267000FDF7C3FE00BF00BF208918B12089B0F567
:10268000804F00D104E040F2051139A0FDF7B5FEFE
:1026900000BF00BF608910B16089402800D104E00C
:1026A0004FF4837132A0FDF7A8FE00BF00BFA089E0
:1026B00018B1A089B0F5007F00D104E040F2071105
:1026C0002BA0FDF79AFE00BF00BFE08918B1E0899A
:1026D000B0F5805F00D104E04FF4847124A0FDF7D1
:1026E0008CFE00BF00BF208A18B1208AB0F5004FD1
:1026F00000D104E040F209111DA0FDF77EFE00BFED
:1027000000272DE006F0010028B3208861880843E7
:10271000A1880843E188084361890843A1890843E7
:10272000E1890843218940EA010A45F27728208A95
:1027300040EA0A0A48F400480C48001D00EB8510E6
:1027400000EB8709B9F8000020EA08000AEA08014E
:102750000843A9F80000761006B903E0781CC7B258
:10276000102FCFD300BF5846BDE8F09FFC3B05407B
:102770002E2E5C2E2E5C647269766572735C6863C3
:1027800033325F6C6C5F6472697665725C7372631E
:102790005C686333325F6C6C5F6770696F2E6300D7
:1027A00008B50121174801F0E3FA0221164801F0AB
:1027B000DFFA0321154801F0DBFA02200F231A4645
:1027C00001460090104801F029FA4FF49670FFF787
:1027D0002DF802200F231A46032100900B4801F028
:1027E0001DFA4FF49670FFF721F802200F231A46C6
:1027F00001210090034801F011FA4FF49670FFF7A1
:1028000015F808BD6E82FF1F7C82FF1F8A82FF1FA2
:1028100070B504460D4600BF4CB1012C07D0022C08
:1028200005D0032C03D0042C01D0052C00D104E0EA
:1028300040F2FD110CA0FDF7E0FD00BF00BF15B197
:10284000A8B200B104E04FF4FF7107A0FDF7D5FD79
:1028500000BF114901EB0410B0F80008284008B18E
:10286000012070BD0020FCE72E2E5C2E2E5C6472D1
:1028700069766572735C686333325F6C6C5F647237
:10288000697665725C7372635C686333325F6C6C2B
:102890005F6770696F2E63000030054070B50446B5
:1028A0000D4600BF4CB1012C07D0022C05D0032CE3
:1028B00003D0042C01D0052C00D104E040F24921C2
:1028C0000BA0FDF79AFD00BF00BF15B1A8B200B183
:1028D00004E040F24A2106A0FDF78FFD00BF10483A
:1028E000102101FB040630882843308070BD0000B1
:1028F0002E2E5C2E2E5C647269766572735C686342
:1029000033325F6C6C5F6472697665725C7372639C
:102910005C686333325F6C6C5F6770696F2E630055
:102920000A38054070B504460D4600BF24B144F096
:102930001F001F2800D104E040F2631118A0FDF72A
:102940005CFD00BF00BF0DB1012D00D104E04FF4CC
:10295000B27113A0FDF751FD00BF00BF1C480088F5
:1029600000F0010000B104E040F265110CA0FDF799
:1029700044FD00BF012D09D115480838008804F036
:102980001F01084312490839088008E01048083838
:10299000008804F01F0188430D490839088070BD84
:1029A0002E2E5C2E2E5C647269766572735C686391
:1029B00033325F6C6C5F6472697665725C737263EC
:1029C0005C686333325F6C6C5F6770696F2E6300A5
:1029D000FC3B05402DE9F04104460D46164600BF7C
:1029E0004CB1012C07D0022C05D0032C03D0042CB1
:1029F00001D0052C00D104E040F27B1124A0FDF7AA
:102A0000FCFC00BF00BF15B1A8B200B104E04FF458
:102A1000BE711FA0FDF7F1FC00BF00BF0F2E03D950
:102A2000202E02D33B2E00D804E040F27D1118A0E6
:102A3000FDF7E3FC00BF00BF2148008800F0010063
:102A400000B104E04FF4BF7111A0FDF7D6FC00BF48
:102A5000002717E005F0010078B11948801D00EB50
:102A6000841000EB8708B8F800004FF6C0710840EA
:102A700006F03F010843A8F800006D1005B903E017
:102A8000781CC7B2102FE5D300BFBDE8F08100006D
:102A90002E2E5C2E2E5C647269766572735C6863A0
:102AA00033325F6C6C5F6472697665725C737263FB
:102AB0005C686333325F6C6C5F6770696F2E6300B4
:102AC000FC3B054070B504460D4600BF4CB1012CDF
:102AD00007D0022C05D0032C03D0042C01D0052CE8
:102AE00000D104E040F237210BA0FDF786FC00BFC7
:102AF00000BF15B1A8B200B104E04FF40E7106A0FA
:102B0000FDF77BFC00BF1048102101FB0406308854
:102B10002843308070BD00002E2E5C2E2E5C647227
:102B200069766572735C686333325F6C6C5F647284
:102B3000697665725C7372635C686333325F6C6C78
:102B40005F6770696F2E63000838054010B5044652
:102B500000BF44B1B4F5804F05D0B4F5004F02D0AA
:102B6000B4F5404F00D104E040F2D9110EA0FDF7BA
:102B700044FC00BF00BF1848008800F0010000B10D
:102B800004E04FF4ED7108A0FDF737FC00BF1248D8
:102B9000001F0088C0F30D0004F4404108430E49B3
:102BA000091F088010BD00002E2E5C2E2E5C647262
:102BB00069766572735C686333325F6C6C5F6472F4
:102BC000697665725C7372635C686333325F6C6CE8
:102BD0005F6770696F2E6300FC3B05400146002073
:102BE00009B9C01E09E000220A804A80CA800A8210
:102BF0000A814A818A81CA818A8070472DE9F04121
:102C000005464FF000082C46E78B6078801EC1B265
:102C10002846FEF701FC0646E078A8B12079324943
:102C20000870607931490880A07931490870E079ED
:102C300030490870207A304908702E48007830B941
:102C400005202C49087002E0607A2C4908702C4954
:102C5000081F03F0FFFA80462078FF281FD1B742F3
:102C60001DD1B8F1000F1AD0E078C0B1FF2024497F
:102C70001C390870A0784870012088701022214902
:102C80001F481438FDF765FB1E211D481C38FEF750
:102C9000C3FB1B491C39C8830020BDE8F0812078A4
:102CA000FF280DD1B7420BD1B8F1000F08D0E07862
:102CB00030B91248007818B11048007840B2ECE7FB
:102CC0002078552807D1B74205D1B8F1000F02D0BE
:102CD0004FF0FF30E1E74FF400620B490B48FDF77E
:102CE00025FF4FF0FF30D8E72C80FF1F0C80FF1F1F
:102CF0000880FF1F1B80FF1F0980FF1F0A80FF1F26
:102D00005C80FF1F2087FF1F4088FF1FE087FF1F99
:102D100038B518480078012800D138BD022003F0EA
:102D2000B2FE04460121134801F022F803211248A3
:102D300001F01EF864B10120009010480078642171
:102D400010FB01F2012302210D4800F067FF0CE0A7
:102D5000012000900948007800EBC00101EB00124F
:102D600001230221064800F059FFFDF75DFE00BF78
:102D7000D3E700006E82FF1F8A82FF1F1B80FF1FA8
:102D80007C82FF1F2DE9F04105460E4614466FF088
:102D9000020755B14EB144B13146284600F01AF849
:102DA000074617B9204600F0B1F83846BDE8F08173
:102DB000074A0020064B403B1860002104E0002039
:102DC00042F82100481CC1B21029F8D300207047F6
:102DD000408400402DE9F04F91B005460C464FF07D
:102DE00000084FF0010BC14600200090072000EAC8
:102DF0005476E700012000F09BF8824663E0402C07
:102E000007D305EB080000F0ADF8403C08F140089E
:102E100018E0382C14D34022002101A800F06CF8EF
:102E200005EB0801224601A800F05CF8802001A90A
:102E300008550120009001A800F094F8002401E05A
:102E40004FF00109B9F1000F2BD04022002101A859
:102E500000F052F82CB105EB0801224601A800F061
:102E600041F8009810B9802001A90855F8B28DF8F2
:102E70004300380A8DF84200380C8DF84100380EB6
:102E80008DF84000F0B28DF83F00300A8DF83E001A
:102E9000300C8DF83D00300E8DF83C0001A800F09C
:102EA00061F8BBF1000F05D04FF0000B01200C4979
:102EB000486002E000200A49486001200849086093
:102EC00000F036F88246BAF1000F02D1B9F1000FD6
:102ED00095D0002002490860504611B0BDE8F08F3F
:102EE0000080104210B50346002002E00C5C1C5428
:102EF000401C9042FAD310BD10B50346002001E0FB
:102F00001954401C9042FBD310BD000010B501467F
:102F1000064A0B46002006E052F8204024BA43F847
:102F20002040441CE0B20828F6D310BD10840040B5
:102F300008B5014600220020009009E00098431CDB
:102F4000009341F27073984202D96FF0070204E0D7
:102F50000348006808400028F0D100BF104608BDB3
:102F60000084004010B50146064A0B46002006E0EA
:102F700053F8204024BA42F82040441CE0B2102804
:102F8000F6D310BD4084004010B501214805FFF77D
:102F9000D1F9FFF70DFF10BD70B5044600260CB93E
:102FA000F61E4BE000BF2088B0F5007F00DA03E09A
:102FB000CB2123A0FDF721FA00BF2088400900EBB8
:102FC0004000202101EB4000B4F9021088420AD8E9
:102FD0002088400900EB4000252101EB4000B4F9B6
:102FE0000210884206D2B4F90200202802D36FF002
:102FF000020623E060882049042212FB001528689D
:10300000C0F3080040F2FF11884208D120882860F0
:10301000B4F90210194A606842F821000EE02088D5
:103020002968C1F30801884206D1B4F90210134A95
:10303000606842F8210001E06FF00106304670BD83
:103040002E2E5C2E2E5C647269766572735C6863EA
:1030500033325F6C6C5F6472697665725C73726345
:103060005C686333325F6C6C5F696E746572727535
:103070007074732E630000005C1005406080FF1FB9
:1030800010B5034908688047BFF34F8F10BD00009B
:103090006080FF1F10B5034948688047BFF34F8F1A
:1030A00010BD00006080FF1F10B50349886880478D
:1030B000BFF34F8F10BD00006080FF1F10B50349A4
:1030C000C8688047BFF34F8F10BD00006080FF1FAE
:1030D00010B5034908698047BFF34F8F10BD00004A
:1030E0006080FF1F10B5034948698047BFF34F8FC9
:1030F00010BD00006080FF1F10B50349886980473C
:10310000BFF34F8F10BD00006080FF1F10B5034953
:10311000C8698047BFF34F8F10BD00006080FF1F5C
:1031200010B50349086A8047BFF34F8F10BD0000F8
:103130006080FF1F10B50349486A8047BFF34F8F77
:1031400010BD00006080FF1F10B50349886A8047EA
:10315000BFF34F8F10BD00006080FF1F10B5034903
:10316000C86A8047BFF34F8F10BD00006080FF1F0B
:1031700010B50349086B8047BFF34F8F10BD0000A7
:103180006080FF1F10B50349486B8047BFF34F8F26
:1031900010BD00006080FF1F10B50349886B804799
:1031A000BFF34F8F10BD00006080FF1F10B50349B3
:1031B000C86B8047BFF34F8F10BD00006080FF1FBA
:1031C00010B50349086C8047BFF34F8F10BD000056
:1031D0006080FF1F10B50349486C8047BFF34F8FD5
:1031E00010BD00006080FF1F10B50349886C804748
:1031F000BFF34F8F10BD00006080FF1F10B5034963
:10320000C86C8047BFF34F8F10BD00006080FF1F68
:1032100010B50349086D8047BFF34F8F10BD000004
:103220006080FF1F10B50349486D8047BFF34F8F83
:1032300010BD00006080FF1F10B50349886D8047F6
:10324000BFF34F8F10BD00006080FF1F10B5034912
:10325000C86D8047BFF34F8F10BD00006080FF1F17
:1032600010B50349086E8047BFF34F8F10BD0000B3
:103270006080FF1F10B50349486E8047BFF34F8F32
:1032800010BD00006080FF1F10B50349886E8047A5
:10329000BFF34F8F10BD00006080FF1F10B50349C2
:1032A000C86E8047BFF34F8F10BD00006080FF1FC6
:1032B00010B50349086F8047BFF34F8F10BD000062
:1032C0006080FF1F10B50349486F8047BFF34F8FE1
:1032D00010BD00006080FF1F10B50349886F804754
:1032E000BFF34F8F10BD00006080FF1F10B5034972
:1032F000C86F8047BFF34F8F10BD00006080FF1F75
:1033000010B50349D1F880008047BFF34F8F10BD3F
:103310006080FF1F10B50349D1F884008047BFF3D8
:103320004F8F10BD6080FF1F10B50349D1F8880092
:103330008047BFF34F8F10BD6080FF1F10B503495A
:10334000D1F88C008047BFF34F8F10BD6080FF1F06
:1033500010B50349D1F890008047BFF34F8F10BDDF
:103360006080FF1F10B50349D1F894008047BFF378
:103370004F8F10BD6080FF1F10B50349D1F8980032
:103380008047BFF34F8F10BD6080FF1F10B503490A
:10339000D1F89C008047BFF34F8F10BD6080FF1FA6
:1033A00010B50349D1F8A0008047BFF34F8F10BD7F
:1033B0006080FF1F10B50349D1F8A4008047BFF318
:1033C0004F8F10BD6080FF1F10B50349D1F8A800D2
:1033D0008047BFF34F8F10BD6080FF1F10B50349BA
:1033E000D1F8AC008047BFF34F8F10BD6080FF1F46
:1033F00010B50349D1F8B0008047BFF34F8F10BD1F
:103400006080FF1F10B50349D1F8B4008047BFF3B7
:103410004F8F10BD6080FF1F10B50349D1F8B80071
:103420008047BFF34F8F10BD6080FF1F10B5034969
:10343000D1F8BC008047BFF34F8F10BD6080FF1FE5
:1034400010B50349D1F8C0008047BFF34F8F10BDBE
:103450006080FF1F10B50349D1F8C4008047BFF357
:103460004F8F10BD6080FF1F10B50349D1F8C80011
:103470008047BFF34F8F10BD6080FF1F10B5034919
:10348000D1F8CC008047BFF34F8F10BD6080FF1F85
:1034900010B50349D1F8D0008047BFF34F8F10BD5E
:1034A0006080FF1F10B50349D1F8D4008047BFF3F7
:1034B0004F8F10BD6080FF1F10B50349D1F8D800B1
:1034C0008047BFF34F8F10BD6080FF1F10B50349C9
:1034D000D1F8DC008047BFF34F8F10BD6080FF1F25
:1034E00010B50349D1F8E0008047BFF34F8F10BDFE
:1034F0006080FF1F10B50349D1F8E4008047BFF397
:103500004F8F10BD6080FF1F10B50349D1F8E80050
:103510008047BFF34F8F10BD6080FF1F10B5034978
:10352000D1F8EC008047BFF34F8F10BD6080FF1FC4
:1035300010B50349D1F8F0008047BFF34F8F10BD9D
:103540006080FF1F10B50349D1F8F4008047BFF336
:103550004F8F10BD6080FF1F10B50349D1F8F800F0
:103560008047BFF34F8F10BD6080FF1F10B5034928
:10357000D1F8FC008047BFF34F8F10BD6080FF1F64
:1035800010B50349D1F800018047BFF34F8F10BD3C
:103590006080FF1F10B50349D1F804018047BFF3D5
:1035A0004F8F10BD6080FF1F10B50349D1F808018F
:1035B0008047BFF34F8F10BD6080FF1F10B50349D8
:1035C000D1F80C018047BFF34F8F10BD6080FF1F03
:1035D00010B50349D1F810018047BFF34F8F10BDDC
:1035E0006080FF1F10B50349D1F814018047BFF375
:1035F0004F8F10BD6080FF1F10B50349D1F818012F
:103600008047BFF34F8F10BD6080FF1F10B5034987
:10361000D1F81C018047BFF34F8F10BD6080FF1FA2
:1036200010B50349D1F820018047BFF34F8F10BD7B
:103630006080FF1F10B50349D1F824018047BFF314
:103640004F8F10BD6080FF1F10B50349D1F82801CE
:103650008047BFF34F8F10BD6080FF1F10B5034937
:10366000D1F82C018047BFF34F8F10BD6080FF1F42
:1036700010B50349D1F830018047BFF34F8F10BD1B
:103680006080FF1F10B50349D1F834018047BFF3B4
:103690004F8F10BD6080FF1F10B50349D1F838016E
:1036A0008047BFF34F8F10BD6080FF1F10B50349E7
:1036B000D1F83C018047BFF34F8F10BD6080FF1FE2
:1036C00010B50349D1F840018047BFF34F8F10BDBB
:1036D0006080FF1F10B50349D1F844018047BFF354
:1036E0004F8F10BD6080FF1F10B50349D1F848010E
:1036F0008047BFF34F8F10BD6080FF1F10B5034997
:10370000D1F84C018047BFF34F8F10BD6080FF1F81
:1037100010B50349D1F850018047BFF34F8F10BD5A
:103720006080FF1F10B50349D1F854018047BFF3F3
:103730004F8F10BD6080FF1F10B50349D1F85801AD
:103740008047BFF34F8F10BD6080FF1F10B5034946
:10375000D1F85C018047BFF34F8F10BD6080FF1F21
:1037600010B50349D1F860018047BFF34F8F10BDFA
:103770006080FF1F10B50349D1F864018047BFF393
:103780004F8F10BD6080FF1F10B50349D1F868014D
:103790008047BFF34F8F10BD6080FF1F10B50349F6
:1037A000D1F86C018047BFF34F8F10BD6080FF1FC1
:1037B00010B50349D1F870018047BFF34F8F10BD9A
:1037C0006080FF1F10B50349D1F874018047BFF333
:1037D0004F8F10BD6080FF1F10B50349D1F87801ED
:1037E0008047BFF34F8F10BD6080FF1F10B50349A6
:1037F000D1F87C018047BFF34F8F10BD6080FF1F61
:1038000010B50349D1F880018047BFF34F8F10BD39
:103810006080FF1F10B50349D1F884018047BFF3D2
:103820004F8F10BD6080FF1F10B50349D1F888018C
:103830008047BFF34F8F10BD6080FF1F10B5034955
:10384000D1F88C018047BFF34F8F10BD6080FF1F00
:1038500010B50349D1F890018047BFF34F8F10BDD9
:103860006080FF1F10B50349D1F894018047BFF372
:103870004F8F10BD6080FF1F10B50349D1F898012C
:103880008047BFF34F8F10BD6080FF1F10B5034905
:10389000D1F89C018047BFF34F8F10BD6080FF1FA0
:1038A00010B50349D1F8A0018047BFF34F8F10BD79
:1038B0006080FF1F10B50349D1F8A4018047BFF312
:1038C0004F8F10BD6080FF1F10B50349D1F8A801CC
:1038D0008047BFF34F8F10BD6080FF1F10B50349B5
:1038E000D1F8AC018047BFF34F8F10BD6080FF1F40
:1038F00010B50349D1F8B0018047BFF34F8F10BD19
:103900006080FF1F10B50349D1F8B4018047BFF3B1
:103910004F8F10BD6080FF1F10B50349D1F8B8016B
:103920008047BFF34F8F10BD6080FF1F10B5034964
:10393000D1F8BC018047BFF34F8F10BD6080FF1FDF
:1039400010B50349D1F8C0018047BFF34F8F10BDB8
:103950006080FF1F10B50349D1F8C4018047BFF351
:103960004F8F10BD6080FF1F10B50349D1F8C8010B
:103970008047BFF34F8F10BD6080FF1F10B5034914
:10398000D1F8CC018047BFF34F8F10BD6080FF1F7F
:1039900010B50349D1F8D0018047BFF34F8F10BD58
:1039A0006080FF1F10B50349D1F8D4018047BFF3F1
:1039B0004F8F10BD6080FF1F10B50349D1F8D801AB
:1039C0008047BFF34F8F10BD6080FF1F10B50349C4
:1039D000D1F8DC018047BFF34F8F10BD6080FF1F1F
:1039E00010B50349D1F8E0018047BFF34F8F10BDF8
:1039F0006080FF1F10B50349D1F8E4018047BFF391
:103A00004F8F10BD6080FF1F10B50349D1F8E8014A
:103A10008047BFF34F8F10BD6080FF1F10B5034973
:103A2000D1F8EC018047BFF34F8F10BD6080FF1FBE
:103A300010B50349D1F8F0018047BFF34F8F10BD97
:103A40006080FF1F10B50349D1F8F4018047BFF330
:103A50004F8F10BD6080FF1F10B50349D1F8F801EA
:103A60008047BFF34F8F10BD6080FF1F10B5034923
:103A7000D1F8FC018047BFF34F8F10BD6080FF1F5E
:103A80002DE9F0410546032D17DA0026FF27002413
:103A900008E0204600F014F810B1701CC6B22746AA
:103AA000601CC4B2032CF4DB012E04D1AF4202D15E
:103AB0000120BDE8F0810020FBE70020F9E70000CD
:103AC00070B5044604EB44020C4B03EB42025188F0
:103AD00004EB440213F81200FEF79AFE08B9002521
:103AE00000E0012504EB4400044901EB40000079AB
:103AF000A84201D1012070BD0020FCE7AC6B0000A2
:103B000000B585B06846FFF769F80020ADF8000001
:103B10000220ADF802001020ADF806006A46202110
:103B20000120FEF73DFD6A464FF480710120FEF74B
:103B300037FD6A464FF400410220FEF731FD0021B7
:103B40000420FEF7EFFE6A4608210120FEF728FD5B
:103B5000002009490873094908730949087309498C
:103B60000873094908730949087309490873094921
:103B7000087305B000BD00006E82FF1F7C82FF1F2E
:103B80008A82FF1F9882FF1FA682FF1FD082FF1F1D
:103B9000B482FF1FC282FF1F70B504460D46207815
:103BA00020B1A08810B1207B012800D170BD6078C1
:103BB00088B9A08800282FDD2089401C80B2208190
:103BC0006188884228DB284602F09BFD0020208186
:103BD0000120607020E0607801281DD12089401C00
:103BE00080B22081A188884216DBE08800280DDDA4
:103BF0006089401C80B26081E188884201DB00203E
:103C00002070207810B90020A080CFE7002020810C
:103C10006070284602F0B4FD00BFC7E72DE9F0410F
:103C200004460E4615461F46DDF8188015B1207B68
:103C3000012801D1BDE8F0816580A780A4F8068045
:103C4000002020816081607001202070304602F0E9
:103C500097FD00BFEEE7000010B5044604F0010038
:103C600048B100BF40F223101A49086043F2102007
:103C7000086000BF00BF04F0020028B100BF164872
:103C80001649086100BF00BF04F0040030B100BF56
:103C90004AF201501249088000BF00BF04F0100032
:103CA00018B14AF2085000F017F904F0400018B1BA
:103CB0004AF2035000F010F904F0800040B100BF58
:103CC00077200849086007490831086000BF00BF35
:103CD00010BD0000000401400100A5A500800440C3
:103CE000FC3B05400408054010B5044604F0010003
:103CF00028B100BF00201949086000BF00BF04F0D0
:103D0000020028B100BF16481649086100BF00BF75
:103D100004F0040030B100BF4FF425401249088080
:103D200000BF00BF04F0100018B14AF2085000F0C4
:103D3000C5F804F0400018B14AF2035000F0BEF894
:103D400004F0800040B100BF7620084908600749B0
:103D50000831086000BF00BF10BD00000004014032
:103D60000000A5A500800440FC3B05400408054078
:103D700070B504460D4602F005FE0020207029466D
:103D8000204600F003F802F007FE70BD70B504464F
:103D90000D46002020702073607060802081E080DC
:103DA0006081A080284602F0ACFC70BD10B50121F6
:103DB0000F48FFF7F1FE02210E48FFF7EDFE032149
:103DC0000D48FFF7E9FE04210C48FFF7E5FE052149
:103DD0000B48FFF7E1FE06210A48FFF7DDFE072149
:103DE0000948FFF7D9FE08210848FFF7D5FE10BDA6
:103DF0006E82FF1F7C82FF1F8A82FF1F9882FF1F37
:103E0000A682FF1FD082FF1FB482FF1FC282FF1F46
:103E100008B50C2064231A46032100900648FFF7DA
:103E2000FDFEFCF701FE01210448FFF7A1FF02217E
:103E30000348FFF79DFF08BD8A82FF1F6E82FF1FA8
:103E40007C82FF1F10B500BF0F48008800F0020001
:103E5000022800D104E040F267410CA0FCF7CDFA43
:103E600000BF0948001D007800F0C00040F00F00BE
:103E70000549091D087010200349113108701E20E2
:103E8000FDF7F4FC002010BDFE4305402E2E5C2EF5
:103E90002E5C647269766572735C686333325F6C42
:103EA0006C5F6472697665725C7372635C686333BD
:103EB000325F6C6C5F7077632E6300000449098881
:103EC000814341F42541034AA2F8FE1370470000E4
:103ED000FE43054000400540034909880143034A69
:103EE000A2F8FE1370470000FE4305400040054065
:103EF0000748008840F400400549C039A1F8C000D7
:103F000000BF00BF00BF00BF00BF00BF7047000080
:103F1000C040054010B501210148FDF7C9FD10BDA5
:103F2000003005402DE9F8430B2002F0ACFD0446BB
:103F300069480078012803D06848007801280FD12B
:103F400002F086FC054605B93CB90120034664220F
:103F5000052100906248FFF761FE2046BDE8F88326
:103F60005D48007800287DD15C4800780028FAD1AF
:103F7000042002F088FD0546032002F084FD064679
:103F8000052002F080FD8046012002F07CFD814684
:103F900002F05EFC0746EDB9E6B907B984B9012025
:103FA00003466422052100904D48FFF737FE0120AB
:103FB00003466422032100904A48FFF72FFE07E0E2
:103FC00005214748FFF7D4FE03214648FFF7D0FEFE
:103FD0002046C3E7EDB9012E1BD184B90120034669
:103FE0006422052100903E48FFF718FE0120034699
:103FF0006422032100903B48FFF710FE07E00521F3
:104000003748FFF7B5FE03213648FFF7B1FE2046DB
:10401000A4E7B6B9012D14D18FB1012003464FF4A6
:104020009672052100902E48FFF7F8FD0120034607
:104030004FF49672032100902A48FFF7EFFD2046C7
:104040008CE7B8F1000F21D1012D1FD1012E1DD118
:10405000012003466422032100902248FFF7DEFD81
:1040600017B900E036E07CB901200346642205213F
:1040700000901B48FFF7D2FD012003466422032174
:1040800000901848FFF7CAFD204667E7B9F1000F16
:104090001FD1012D1DD1012E1BD101200346642209
:1040A000032100900F48FFF7B9FD07B97CB9012043
:1040B00003466422052100900948FFF7AFFD012067
:1040C00003466422032100900648FFF7A7FD20461F
:1040D00044E700BF204641E76E82FF1F7C82FF1F3E
:1040E000A682FF1F8A82FF1F10B502210548FFF735
:1040F0003FFE03210448FFF73BFE01210846FCF781
:1041000059FB10BD7C82FF1F8A82FF1F10B5022160
:104110000548FFF72DFE03210448FFF729FE012182
:104120000846FCF747FB10BD7C82FF1F8A82FF1FF9
:1041300000B585B06846FEF751FD0020ADF80000DF
:10414000ADF80200ADF80A0000210820FEF7EAFBF6
:104150006A4601210846FEF723FA6A460221012039
:10416000FEF71EFA0220ADF802001020ADF806009E
:104170006A46C1020020FEF713FA6A4604210120B4
:10418000FEF70EFA6A464FF480610120FEF708FA46
:1041900004210120FEF782FB4FF480610120FEF72D
:1041A0007DFB00F002F805B000BD10B54FF40041F2
:1041B0000020FEF773FB04210120FEF783FC4FF47F
:1041C00080610120FEF77EFC002010BD08B50C4880
:1041D000007800B908BD0C2002F055FC68B9012038
:1041E00000905A2007490870012269460648FCF7EA
:1041F000F9FC00200249087000BF00BFEAE7000098
:104200001980FF1F0880FF1FF487FF1F2DE9F0476B
:1042100004460F4690464FF0000900BF24B144F019
:104220000F000F2800D103E0AB2126A0FCF7E5F832
:1042300000BF00BF072F00D803E0AC2121A0FCF78E
:10424000DCF800BF00BFB8F1070F00D803E0AD21D4
:104250001CA0FCF7D2F800BF00BF264800687728F2
:1042600000D103E0AE2117A0FCF7C7F800BF24E09F
:1042700004F00100E0B14FEAC960050E281DC6B286
:1042800007FA06F008FA05F108430721B1400722B2
:10429000AA40114308400721B1400722AA40114318
:1042A000144A121F12688A4310431249091F0860FA
:1042B000640809F1010000F0FF09002CD8D1BDE825
:1042C000F08700002E2E5C2E2E5C6472697665727B
:1042D000735C686333325F6C6C5F647269766572BD
:1042E0005C7372635C686333325F6C6C5F737261C2
:1042F0006D2E6300040805407FB505460C46002678
:10430000B84800680390B74840680290B548806894
:104310000190B448C068009000BF04F0E060E8B1CC
:1043200004F0E060B0F1807F18D004F0E060B0F1FC
:10433000007F13D004F0E060B0F1407F0ED004F0B5
:10434000E060B0F1806F09D004F0E060B0F1A06FE0
:1043500004D004F0E060B0F1C06F00D104E040F29E
:10436000AE21A1A0FCF749F800BF00BF04F0700027
:10437000B8B104F07000102813D004F070002028A9
:104380000FD004F0700030280BD004F070004028EB
:1043900007D004F07000502803D004F070006028AB
:1043A00000D104E040F2AF218FA0FCF726F800BF57
:1043B00000BF04F4E020E8B104F4E020B0F5803F51
:1043C00018D004F4E020B0F5003F13D004F4E0204E
:1043D000B0F5403F0ED004F4E020B0F5802F09D0B6
:1043E00004F4E020B0F5A02F04D004F4E020B0F5F0
:1043F000C02F00D104E04FF42C717BA0FBF7FDFF30
:1044000000BF00BF04F4E000E8B104F4E000B0F540
:10441000801F18D004F4E000B0F5001F13D004F49E
:10442000E000B0F5401F0ED004F4E000B0F5800FBE
:1044300009D004F4E000B0F5A00F04D004F4E000CB
:10444000B0F5C00F00D104E040F2B12166A0FBF747
:10445000D4FF00BF00BF04F00700B8B104F00700AC
:10446000012813D004F0070002280FD004F0070041
:1044700003280BD004F00700042807D004F007003D
:10448000052803D004F00700062800D104E040F21C
:10449000B22155A0FBF7B1FF00BF00BF04F4E060FC
:1044A000E8B104F4E060B0F5807F18D004F4E06077
:1044B000B0F5007F13D004F4E060B0F5407F0ED07B
:1044C00004F4E060B0F5806F09D004F4E060B0F56A
:1044D000A06F04D004F4E060B0F5C06F00D104E038
:1044E00040F2B32140A0FBF788FF00BF00BF04F4F7
:1044F000E040E8B104F4E040B0F5805F18D004F487
:10450000E040B0F5005F13D004F4E040B0F5405F48
:104510000ED004F4E040B0F5804F09D004F4E04040
:10452000B0F5A04F04D004F4E040B0F5C04F00D186
:1045300004E04FF42D712CA0FBF75FFF00BF00BF1C
:104540003548284000B104E040F2B52126A0FBF731
:1045500054FF00BF00BF3148008800F0010000B1E7
:1045600004E040F2B62120A0FBF747FF00BF2C4833
:10457000007800F00700052817D1012600BF194870
:10458000006900F0010000B104E040F2BD2116A076
:10459000FBF733FF00BF234812490860C012486090
:1045A0008860C8601E20FDF761F91D482638006A42
:1045B000A84304EA050108431949263908621E2068
:1045C000FDF754F9012E0BD10649039808600298B3
:1045D0004860019888600098C8601E20FDF746F981
:1045E0007FBD0000008004402E2E5C2E2E5C647285
:1045F00069766572735C686333325F6C6C5F64729A
:10460000697665725C7372635C686333325F6C6C8D
:104610005F636C6B2E63000077777707FE4305407E
:1046200026400540EEFAFFFF7FB5044600253048DE
:10463000006803902E48406802902D4880680190E1
:104640002B48C068009000BF4CB1012C07D0022C51
:1046500005D0032C03D0042C01D0052C00D104E09C
:104660004FF4117123A0FBF7C8FE00BF00BF2D4817
:10467000008800F0010000B104E040F245211DA0D7
:10468000FBF7BBFE00BF2848007800F007000528B4
:1046900001D0052C17D1012500BF1548006900F095
:1046A000010000B104E040F24D2112A0FBF7A5FE8D
:1046B00000BF1E480E490860C01248608860C8608C
:1046C0001E20FDF7D3F8184804701E20FDF7CEF821
:1046D000012D0BD1064903980860029848600198A3
:1046E00088600098C8601E20FDF7C0F87FBD0000FC
:1046F000008004402E2E5C2E2E5C647269766572FA
:10470000735C686333325F6C6C5F64726976657288
:104710005C7372635C686333325F6C6C5F636C6B99
:104720002E630000FE43054026400540EEFAFFFFE1
:104730002DE9F34F2DED088B8BB08A468A4B0FCBBA
:1047400003AC0FC44FF0FF30029000BF87491398AD
:1047500088420BD086491398884207D08549139820
:10476000884203D084491398884200D104E040F283
:10477000EB1182A0FBF741FE00BFDAF80040DAF847
:104780000470002C7DD0002FFCD01398406900F4F9
:10479000600500BF5DB1B5F5001F08D0B5F5C00FCD
:1047A00005D0B5F5200F02D0B5F5400F00D104E0DB
:1047B00040F2F11171A0FBF720FE00BF680D03A9C4
:1047C00031F8105007FB05F04000B4FBF0F0461E36
:1047D000FF2E7ED8CAF8086007FB05F04000B4FB46
:1047E000F0F100FB11400790079830B99FED700A77
:1047F0008AED040A002002906BE00220A0FB051263
:1048000000204FF0010C16EB0C0C40EB0003A1FB59
:104810000C0E02FB0CE201FB03220021A0FB07832C
:1048200002FB073200FB01294FF480710022A8FB34
:1048300001C309FB013108FB021052084FEA34039F
:104840001CEB0301504122460023CDE9001008462D
:104850000199FBF74DFD8021B0EB010BBBF17F0F00
:1048600037D8CAF80CB049004FF0000C4246A2FB02
:10487000010E09FB01E108FB0C1980460020802293
:1048800000E06BE01BEB020240EB00030021A2FB07
:10489000040C03FB04C302FB0131CDE908014046CF
:1048A0004946FBF794FD41EC1A0BDDE90801FBF7E3
:1048B0008EFD53EC1A2BFBF7B3FDFBF720FE00EE49
:1048C000100AF7EE000A30EE608A8AED048A0020B2
:1048D00002900298B0F1FF3F40D104EB8400410008
:1048E00007FB05F04000B1FBF0F0401D0A21B0FBD2
:1048F000F1F0461EFF2E31D8CAF808600220A0FB56
:10490000051200204FF0010C16EB0C0C4041134631
:10491000A1FB0C2E03FB0CE301FB00310023A2FBE7
:10492000078C01FB07C102FB031940464946FBF710
:104930004EFD41EC1A0B2046FBF73CFD53EC1A2BC5
:10494000FBF76EFDFBF7DBFD00EE100AF7EE000A49
:1049500030EE608A8AED048A0020029002980BB043
:10496000BDEC088BBDE8FC8F9C6B000000D00140C3
:1049700000D4014000100240001402402E2E5C2E94
:104980002E5C647269766572735C686333325F6C47
:104990006C5F6472697665725C7372635C686333C2
:1049A000325F6C6C5F75736172742E63000000007F
:1049B0000000000010B506480068401C044908606B
:1049C00001F032FF01F092FEBFF34F8F10BD0000E7
:1049D0002080FF1FF0B501464FF0FF34A9B3B1F5B9
:1049E0007A7F32D84FF47A70B0FBF1F0184A106039
:1049F0001848006AC0F3026317480068D840B0FB4B
:104A0000F1F2501EB0F1807F01D301201BE0501E57
:104A10004FF0E023586158170F23002804DB1D07CF
:104A20002E0E0E4D2E5406E01D072F0E0C4D00F0DD
:104A30000F06361FAF5500BF00204FF0E0239861EE
:104A400007201861002000B900242046F0BD0000B6
:104A50001080FF1F004005400080FF1F00E400E0C1
:104A600018ED00E04FF0E020006940F002004FF048
:104A7000E021086170474FF0E020006920F002005B
:104A80004FF0E0210861704770B52B4D2D6805F09F
:104A900001051DB1294D2A4E356002E0294D284EF1
:104AA0003560294D2D7805F00700062840D2DFE853
:104AB00000F003080C11151A214D2D68234E3560A6
:104AC00037E0234D214E356033E04FF400451F4E53
:104AD00035602EE01E4D1D4E35602AE04FF4004536
:104AE0001A4E356025E0184DDA352D68C5F30822D9
:104AF000154D263DD5F800512B0F134DDA352D6895
:104B000005F01F04104D263DD5F8005105F0800535
:104B10000DB90F4901E00A4D2968651CB1FBF5F597
:104B2000561C75435E1CB5FBF6F5084E356000E07B
:104B300000BF00BF70BD0000840601400024F400E7
:104B40000480FF1F002D3101264005400080FF1F1B
:104B500000127A0000B50648006840F4700004496D
:104B60000860FFF791FF002001498039086000BD0F
:104B700088ED00E02DE9FF41064601210220FDF706
:104B80006DFC4FF4A0600090302001900020029056
:104B9000019808B9072410E00198102801D10524D4
:104BA0000BE00198202805D00198302802D0019808
:104BB000402801D1032400E00224019801090120CA
:104BC000884085B27019401EB0FBF5F0001B87B21B
:104BD000ADF80C706A460121074800F0BBF80122CD
:104BE0001146054800F060F801221146024800F025
:104BF00005F8BDE8FF8100000044024070B504469E
:104C00000D46164600BF1A48844202D01948844215
:104C100000D104E04FF4047117A0FBF7EEFB00BFD6
:104C200000BF0DB1012D00D104E040F2112112A00E
:104C3000FBF7E3FB00BF00BF0EB1012E00D104E083
:104C400040F212210CA0FBF7D8FB00BF012E06D1C9
:104C500020692A01B10391400843206106E02069E0
:104C60002A014FF4804191408843206170BD0000CB
:104C700000400240004402402E2E5C2E2E5C6472E6
:104C800069766572735C686333325F6C6C5F647203
:104C9000697665725C7372635C686333325F6C6CF7
:104CA0005F746D72302E630070B504460D46164673
:104CB00000BF1A48844202D01948844200D104E05F
:104CC0004FF4EF7117A0FBF798FB00BF00BF0DB1C9
:104CD000012D00D104E040F2DF1112A0FBF78DFBA3
:104CE00000BF00BF0EB1012E00D104E04FF4F071FF
:104CF0000CA0FBF782FB00BF012E06D120692A0120
:104D0000310391400843206106E020692A014FF4F5
:104D1000805191408843206170BD000000400240F6
:104D2000004402402E2E5C2E2E5C64726976657201
:104D3000735C686333325F6C6C5F64726976657252
:104D40005C7372635C686333325F6C6C5F746D724A
:104D5000302E63002DE9F04706460D4614464FF00D
:104D6000000914B96FF002097FE000BF4048864295
:104D700002D04048864200D103E0BD213EA0FBF7AF
:104D80003CFB00BF00BF0DB1012D00D103E0BE21EF
:104D900039A0FBF732FB00BF00BF206858B1206884
:104DA000B0F5007F07D02068B0F5807F03D0206881
:104DB000B0F5A06F00D103E0BF212FA0FBF71DFBD2
:104DC00000BF00BF6068E8B1606810281AD0606852
:104DD000202817D06068302814D06068402811D08F
:104DE000606850280ED0606860280BD0606870281A
:104DF00008D06068802805D06068902802D060687C
:104E0000A02800D103E0C0211BA0FBF7F6FA00BFE9
:104E100000BFA06820B148F20201A068884200D11A
:104E200003E0C12114A0FBF7E8FA00BF06EB8507F9
:104E30000020386006F1080000EB8508A089C8F85A
:104E4000000030692A0148F2F27191408843D4E9A8
:104E500000121143A26811432A0191402B0148F22C
:104E6000F2729A401140084330614846BDE8F0872D
:104E700000400240004402402E2E5C2E2E5C6472E4
:104E800069766572735C686333325F6C6C5F647201
:104E9000697665725C7372635C686333325F6C6CF5
:104EA0005F746D72302E630070B504460D4600BF0E
:104EB0000F48844202D00F48844200D104E040F2FF
:104EC00005110DA0FBF799FA00BF00BF0DB1012D30
:104ED00000D104E04FF4837107A0FBF78EFA00BF06
:104EE00020692A01012191408843206170BD0000A2
:104EF00000400240004402402E2E5C2E2E5C647264
:104F000069766572735C686333325F6C6C5F647280
:104F1000697665725C7372635C686333325F6C6C74
:104F20005F746D72302E63002DE9F84F044608203F
:104F3000009000BF274884420ED0274884420BD0FF
:104F40002648844208D02648844205D02548844219
:104F500002D02548844200D104E04FF4407123A0E0
:104F6000FBF74BFA00BF04F10408254604F14009A1
:104F700004F5807A04F5A07B00260AE0B7004FF61E
:104F8000FF7029F8070000202AF807002BF8070017
:104F9000761C00988642F1D34FF6FF70A8F8000007
:104FA00000202880022004F8800F002060702082FA
:104FB000A0822083A083A0802081A081A4F840004B
:104FC000A4F84800A4F85000A4F85800803CBDE8BC
:104FD000F88F00000050014000540140005801408B
:104FE000005C014000600140006401402E2E5C2EF8
:104FF0002E5C647269766572735C686333325F6CD1
:105000006C5F6472697665725C7372635C6863334B
:10501000325F6C6C5F746D72612E630070B5054613
:105020000C466FF0020600BF534885420ED053482D
:1050300085420BD05248854208D05248854205D05F
:105040005148854202D05148854200D104E04FF4D6
:1050500084714FA0FBF7D1F900BF002C77D000BFBF
:10506000207810B12078012800D104E04FF4857138
:1050700047A0FBF7C2F900BF2078002849D100BF44
:10508000A07810B1A078042800D104E040F20D11FE
:105090003FA0FBF7B2F900BF00BFE07810B1E078A5
:1050A000022800D104E04FF4877139A0FBF7A5F97D
:1050B00000BF00BF6078E8B1607810281AD060782F
:1050C000202817D06078302814D06078402811D07C
:1050D000607850280ED0607860280BD060787028F7
:1050E00008D06078802805D06078902802D0607859
:1050F000A02800D104E040F20F1125A0FBF77DF9B4
:1051000000BFA078E17808436178084385F8800003
:105110002AE000BFA08828B1A08841F6FF710843AB
:10512000884201D0A08800B904E040F2151118A00F
:10513000FBF763F900BF00BFE08828B1E08841F6C3
:10514000FF710843884201D0E08808B905E010E00B
:1051500040F217110EA0FBF750F900BFA088A5F888
:105160008800E088A5F88C002846A16800F0A0F926
:105170000026304670BD0000005001400054014040
:1051800000580140005C01400060014000640140A3
:105190002E2E5C2E2E5C647269766572735C686379
:1051A00033325F6C6C5F6472697665725C737263D4
:1051B0005C686333325F6C6C5F746D72612E630088
:1051C0002DE9F04705460E4614466FF0020900BF70
:1051D0003E4885420ED03E4885420BD03D48854230
:1051E00008D03D48854205D03C48854202D03C4825
:1051F000854202D1072E00D804E04FF4E67139A0B1
:10520000FBF7FBF800BF002C5DD000BFA08828B1E1
:10521000A088012802D0A088022800D104E040F232
:10522000CF1130A0FBF7E9F800BF00BFE08828B13C
:10523000E088012802D0E088022800D104E04FF481
:10524000E87128A0FBF7D9F800BF00BF208940B162
:105250002089012805D02089022802D0208903282E
:1052600000D104E040F2D1111EA0FBF7C6F800BF48
:1052700000BF608940B16089012805D0608902289B
:1052800002D06089032800D104E04FF4E97115A031
:10529000FBF7B3F800BFB60005F14000871920887E
:1052A000388005F5A07000EB0608A088E18840EA88
:1052B0008100218940EA0110618940EA8110A8F843
:1052C00000004FF000094846BDE8F087005001405B
:1052D0000054014000580140005C01400060014062
:1052E000006401402E2E5C2E2E5C6472697665721D
:1052F000735C686333325F6C6C5F6472697665728D
:105300005C7372635C686333325F6C6C5F746D7284
:10531000612E63002DE9F04104460D46164600BF9C
:10532000184884420ED0184884420BD01748844253
:1053300008D01748844205D01648844202D0164847
:10534000844202D1072D00D804E040F2092113A0C5
:10535000FBF753F800BF00BF0EB1012E00D104E0EF
:1053600040F20A210DA0FBF748F800BF04F5A07039
:1053700000EB8507302101EB471000F18440066007
:10538000BDE8F08100500140005401400058014048
:10539000005C014000600140006401402E2E5C2E44
:1053A0002E5C647269766572735C686333325F6C1D
:1053B0006C5F6472697665725C7372635C68633398
:1053C000325F6C6C5F746D72612E63002DE9F04189
:1053D00004460E46154600BF1B4884420ED01B48AB
:1053E00084420BD01A48844208D01A48844205D01F
:1053F0001948844202D01948844202D1072E00D8AD
:1054000004E040F23A2116A0FAF7F7FF00BF00BF10
:105410002DB1B5F5007F02D0B5F5407F00D104E095
:1054200040F23B210EA0FAF7E8FF00BF04F5A070A0
:1054300000EB860738884FF6FF41084005F44071BD
:1054400008433880BDE8F08100500140005401401D
:1054500000580140005C01400060014000640140D0
:105460002E2E5C2E2E5C647269766572735C6863A6
:1054700033325F6C6C5F6472697665725C73726301
:105480005C686333325F6C6C5F746D72612E6300B5
:1054900001466FF0020049B1020C0A6001228A80C5
:1054A0000022CA8003220A814A810020704700003E
:1054B00070B504460D4600BF0D4884420ED00D481D
:1054C00084420BD00C48844208D00C48844205D05A
:1054D0000B48844202D00B48844200D104E040F2E1
:1054E0003E3109A0FAF789FF00BF261D358070BD47
:1054F000005001400054014000580140005C014050
:1055000000600140006401402E2E5C2E2E5C64720F
:1055100069766572735C686333325F6C6C5F64726A
:10552000697665725C7372635C686333325F6C6C5E
:105530005F746D72612E630010B5044600BF1048A1
:1055400084420ED00F4884420BD00F48844208D0CA
:105550000E48844205D00E48844202D00D48844251
:1055600000D104E04FF48B610BA0FAF746FF00BFB7
:1055700094F8800040F0010084F8800010BD000025
:10558000005001400054014000580140005C0140BF
:1055900000600140006401402E2E5C2E2E5C64727F
:1055A00069766572735C686333325F6C6C5F6472DA
:1055B000697665725C7372635C686333325F6C6CCE
:1055C0005F746D72612E630010B5044600BF104811
:1055D00084420ED00F4884420BD00F48844208D03A
:1055E0000E48844205D00E48844202D00D488442C1
:1055F00000D104E040F265410BA0FAF7FEFE00BFC7
:1056000094F8800000F0FE0084F8800010BD0000D7
:10561000005001400054014000580140005C01402E
:1056200000600140006401402E2E5C2E2E5C6472EE
:1056300069766572735C686333325F6C6C5F647249
:10564000697665725C7372635C686333325F6C6C3D
:105650005F746D72612E630001466FF0020061B1EC
:1056600000220A704A7000238B700223CB708A805C
:105670000023CB80020C8A600020704778B5024678
:105680006FF0020044F62064009400233AB331B373
:1056900023E00124124D6C606FF0070004E0104C11
:1056A00064680CB9002004E0009C651E0095002C85
:1056B000F5D100BF88B90B4CE46884F055361C4620
:1056C0005B1C42F824608B4207D2064C246984F0AC
:1056D00055361C465B1C42F824609942D9D178BDEE
:1056E000000082420010044030B595B004460D46DB
:1056F00000BF0C2C05D0102C03D0142C01D0182C7A
:1057000000D103E091210EA0FAF777FE00BF00BFA1
:10571000012D00D005B903E0922109A0FAF76DFE32
:1057200000BF44EA0500124948600846006840F09E
:1057300001000860142101A8FFF7A0FF15B030BDDB
:105740002E2E5C2E2E5C647269766572735C6863C3
:1057500033325F6C6C5F6472697665725C7372631E
:105760005C686333325F6C6C5F74726E672E6300CB
:105770000010044010B501224021044800F0ECF96B
:1057800002210348FCF794F910BD00000014024008
:105790000030054010B586B0044601210420FCF716
:1057A0005DFE03A8FFF758FF00218DF80E100221BF
:1057B0008DF80F1040F69F70059003A91048FFF771
:1057C0002DFC6846FFF764FE00940120ADF804004C
:1057D0000020ADF806000120ADF80A000422010205
:1057E0000020FDF7F7F86A4600210548FFF7E8FCBE
:1057F000012200210248FFF78DFD06B010BD000018
:105800000050014010B501218805FCF793FD0121EE
:105810001020FFF769FF10BD2DE9F34F2DED088B28
:1058200089B08A4601200290801E019000BF8B49FA
:10583000119888420BD08A491198884207D089492B
:105840001198884203D088491198884200D104E019
:105850004FF4A37185A0FAF7D0FD00BFDAF800403D
:10586000DAF80480002C7CD0B8F1000FFBD011983E
:10587000C068C0F3C0394FEAC800C9F1020148430B
:10588000B4FBF0F0471EFF2F13D8CAF808704FEA98
:10589000C800C9F102014843B4FBF0F100FB11401C
:1058A0000390039830B99FED7E0A8AED040A002028
:1058B00001907AE00022D9F1020362EB02004FF07E
:1058C000080CA3FB0C1E00FB0CE003FB02020020F3
:1058D0004FF0010C17EB0C0C40410B46A3FB0C1EC8
:1058E00002FB0CE203FB00200022A1FB083C00FBB2
:1058F00008C001FB0200CDE90630DDE906210802FF
:1059000040EA12601102CDE90610002040084FEA7B
:105910003403DDE906125D1840EB02060020D5F1E4
:10592000FF31B04108D22246002328463146FAF71B
:10593000DFFCA0F1800B03E0B5FBF4F0A0F1800BDD
:10594000BBF17F0F2FD8CAF80CB0DDE90656002056
:1059500080221BEB020240EB00030021A2FB040C9F
:1059600000E062E003FB04C302FB0131CDE9040166
:1059700028463146FAF72BFD41EC1A0BDDE904010C
:10598000FAF725FD53EC1A2BFAF74AFDFAF7B7FDA3
:1059900000EE100AF7EE000A30EE608A8AED048A03
:1059A0000020019001E0002002900298E8BB4FEA3D
:1059B000C800C9F10201484304EB84014900B1FB6E
:1059C000F0F0401D0A21B0FBF1F0471EFF2F3FD839
:1059D000CAF80870002108460B46D9F1020C60EBAA
:1059E000030008230022ACFB031E00FB03E00CFBBA
:1059F000020200204FF0010C17EB0C0C40410B464B
:105A0000A3FB0C1E02FB0CE203FB00220023A1FB04
:105A1000085C02FB08C201FB032628463146FAF760
:105A2000D6FC41EC1A0B204600E011E0FAF7C2FC6C
:105A300053EC1A2BFAF7F4FCFAF761FD00EE100AAA
:105A4000F7EE000A30EE608A8AED048A00200190A9
:105A5000019809B0BDEC088BBDE8FC8F00D0014077
:105A600000D4014000100240001402402E2E5C2E93
:105A70002E5C647269766572735C686333325F6C46
:105A80006C5F6472697665725C7372635C686333C1
:105A9000325F6C6C5F75736172742E63000000007E
:105AA0000000000070B504460D4600BF184884424F
:105AB00008D01848844205D01748844202D01748BD
:105AC000844200D104E040F2DA3115A0FAF795FCE7
:105AD00000BF00BF2DB11F4828431E49884200D196
